{
  "address": "0x655Ac0023d198f60e1DCB3170386EF464bDCEb51",
  "abi": [
    {
      "inputs": [
        {
          "internalType": "string",
          "name": "_name",
          "type": "string"
        },
        {
          "internalType": "string",
          "name": "_symbol",
          "type": "string"
        },
        {
          "internalType": "address",
          "name": "_endpoint",
          "type": "address"
        },
        {
          "internalType": "uint16",
          "name": "_mainEndpointId",
          "type": "uint16"
        },
        {
          "internalType": "uint256",
          "name": "_initialSupplyOnMainEndpoint",
          "type": "uint256"
        }
      ],
      "stateMutability": "nonpayable",
      "type": "constructor"
    },
    {
      "anonymous": false,
      "inputs": [
        {
          "indexed": true,
          "internalType": "address",
          "name": "owner",
          "type": "address"
        },
        {
          "indexed": true,
          "internalType": "address",
          "name": "spender",
          "type": "address"
        },
        {
          "indexed": false,
          "internalType": "uint256",
          "name": "value",
          "type": "uint256"
        }
      ],
      "name": "Approval",
      "type": "event"
    },
    {
      "anonymous": false,
      "inputs": [
        {
          "indexed": true,
          "internalType": "address",
          "name": "previousOwner",
          "type": "address"
        },
        {
          "indexed": true,
          "internalType": "address",
          "name": "newOwner",
          "type": "address"
        }
      ],
      "name": "OwnershipTransferred",
      "type": "event"
    },
    {
      "anonymous": false,
      "inputs": [
        {
          "indexed": false,
          "internalType": "bool",
          "name": "isPaused",
          "type": "bool"
        }
      ],
      "name": "Paused",
      "type": "event"
    },
    {
      "anonymous": false,
      "inputs": [
        {
          "indexed": false,
          "internalType": "uint16",
          "name": "srcChainId",
          "type": "uint16"
        },
        {
          "indexed": false,
          "internalType": "address",
          "name": "toAddress",
          "type": "address"
        },
        {
          "indexed": false,
          "internalType": "uint256",
          "name": "qty",
          "type": "uint256"
        },
        {
          "indexed": false,
          "internalType": "uint64",
          "name": "nonce",
          "type": "uint64"
        }
      ],
      "name": "ReceiveFromChain",
      "type": "event"
    },
    {
      "anonymous": false,
      "inputs": [
        {
          "indexed": false,
          "internalType": "uint16",
          "name": "srcChainId",
          "type": "uint16"
        },
        {
          "indexed": false,
          "internalType": "bytes",
          "name": "toAddress",
          "type": "bytes"
        },
        {
          "indexed": false,
          "internalType": "uint256",
          "name": "qty",
          "type": "uint256"
        },
        {
          "indexed": false,
          "internalType": "uint64",
          "name": "nonce",
          "type": "uint64"
        }
      ],
      "name": "SendToChain",
      "type": "event"
    },
    {
      "anonymous": false,
      "inputs": [
        {
          "indexed": true,
          "internalType": "address",
          "name": "from",
          "type": "address"
        },
        {
          "indexed": true,
          "internalType": "address",
          "name": "to",
          "type": "address"
        },
        {
          "indexed": false,
          "internalType": "uint256",
          "name": "value",
          "type": "uint256"
        }
      ],
      "name": "Transfer",
      "type": "event"
    },
    {
      "inputs": [
        {
          "internalType": "address",
          "name": "owner",
          "type": "address"
        },
        {
          "internalType": "address",
          "name": "spender",
          "type": "address"
        }
      ],
      "name": "allowance",
      "outputs": [
        {
          "internalType": "uint256",
          "name": "",
          "type": "uint256"
        }
      ],
      "stateMutability": "view",
      "type": "function"
    },
    {
      "inputs": [
        {
          "internalType": "address",
          "name": "spender",
          "type": "address"
        },
        {
          "internalType": "uint256",
          "name": "amount",
          "type": "uint256"
        }
      ],
      "name": "approve",
      "outputs": [
        {
          "internalType": "bool",
          "name": "",
          "type": "bool"
        }
      ],
      "stateMutability": "nonpayable",
      "type": "function"
    },
    {
      "inputs": [
        {
          "internalType": "address",
          "name": "account",
          "type": "address"
        }
      ],
      "name": "balanceOf",
      "outputs": [
        {
          "internalType": "uint256",
          "name": "",
          "type": "uint256"
        }
      ],
      "stateMutability": "view",
      "type": "function"
    },
    {
      "inputs": [],
      "name": "chainId",
      "outputs": [
        {
          "internalType": "uint16",
          "name": "",
          "type": "uint16"
        }
      ],
      "stateMutability": "view",
      "type": "function"
    },
    {
      "inputs": [],
      "name": "decimals",
      "outputs": [
        {
          "internalType": "uint8",
          "name": "",
          "type": "uint8"
        }
      ],
      "stateMutability": "view",
      "type": "function"
    },
    {
      "inputs": [
        {
          "internalType": "address",
          "name": "spender",
          "type": "address"
        },
        {
          "internalType": "uint256",
          "name": "subtractedValue",
          "type": "uint256"
        }
      ],
      "name": "decreaseAllowance",
      "outputs": [
        {
          "internalType": "bool",
          "name": "",
          "type": "bool"
        }
      ],
      "stateMutability": "nonpayable",
      "type": "function"
    },
    {
      "inputs": [
        {
          "internalType": "uint16",
          "name": "",
          "type": "uint16"
        }
      ],
      "name": "dstContractLookup",
      "outputs": [
        {
          "internalType": "bytes",
          "name": "",
          "type": "bytes"
        }
      ],
      "stateMutability": "view",
      "type": "function"
    },
    {
      "inputs": [],
      "name": "endpoint",
      "outputs": [
        {
          "internalType": "contract ILayerZeroEndpoint",
          "name": "",
          "type": "address"
        }
      ],
      "stateMutability": "view",
      "type": "function"
    },
    {
      "inputs": [
        {
          "internalType": "uint16",
          "name": "_dstChainId",
          "type": "uint16"
        },
        {
          "internalType": "bytes",
          "name": "_toAddress",
          "type": "bytes"
        },
        {
          "internalType": "bool",
          "name": "_useZro",
          "type": "bool"
        },
        {
          "internalType": "bytes",
          "name": "_txParameters",
          "type": "bytes"
        }
      ],
      "name": "estimateSendTokensFee",
      "outputs": [
        {
          "internalType": "uint256",
          "name": "nativeFee",
          "type": "uint256"
        },
        {
          "internalType": "uint256",
          "name": "zroFee",
          "type": "uint256"
        }
      ],
      "stateMutability": "view",
      "type": "function"
    },
    {
      "inputs": [
        {
          "internalType": "uint16",
          "name": "_srcChainId",
          "type": "uint16"
        },
        {
          "internalType": "bytes",
          "name": "_srcAddress",
          "type": "bytes"
        }
      ],
      "name": "forceResumeReceive",
      "outputs": [],
      "stateMutability": "nonpayable",
      "type": "function"
    },
    {
      "inputs": [
        {
          "internalType": "address",
          "name": "spender",
          "type": "address"
        },
        {
          "internalType": "uint256",
          "name": "addedValue",
          "type": "uint256"
        }
      ],
      "name": "increaseAllowance",
      "outputs": [
        {
          "internalType": "bool",
          "name": "",
          "type": "bool"
        }
      ],
      "stateMutability": "nonpayable",
      "type": "function"
    },
    {
      "inputs": [],
      "name": "isMain",
      "outputs": [
        {
          "internalType": "bool",
          "name": "",
          "type": "bool"
        }
      ],
      "stateMutability": "view",
      "type": "function"
    },
    {
      "inputs": [
        {
          "internalType": "uint16",
          "name": "_srcChainId",
          "type": "uint16"
        },
        {
          "internalType": "bytes",
          "name": "_fromAddress",
          "type": "bytes"
        },
        {
          "internalType": "uint64",
          "name": "_nonce",
          "type": "uint64"
        },
        {
          "internalType": "bytes",
          "name": "_payload",
          "type": "bytes"
        }
      ],
      "name": "lzReceive",
      "outputs": [],
      "stateMutability": "nonpayable",
      "type": "function"
    },
    {
      "inputs": [],
      "name": "name",
      "outputs": [
        {
          "internalType": "string",
          "name": "",
          "type": "string"
        }
      ],
      "stateMutability": "view",
      "type": "function"
    },
    {
      "inputs": [],
      "name": "owner",
      "outputs": [
        {
          "internalType": "address",
          "name": "",
          "type": "address"
        }
      ],
      "stateMutability": "view",
      "type": "function"
    },
    {
      "inputs": [
        {
          "internalType": "bool",
          "name": "_pause",
          "type": "bool"
        }
      ],
      "name": "pauseSendTokens",
      "outputs": [],
      "stateMutability": "nonpayable",
      "type": "function"
    },
    {
      "inputs": [],
      "name": "paused",
      "outputs": [
        {
          "internalType": "bool",
          "name": "",
          "type": "bool"
        }
      ],
      "stateMutability": "view",
      "type": "function"
    },
    {
      "inputs": [],
      "name": "renounceOwnership",
      "outputs": [],
      "stateMutability": "nonpayable",
      "type": "function"
    },
    {
      "inputs": [
        {
          "internalType": "uint16",
          "name": "_dstChainId",
          "type": "uint16"
        },
        {
          "internalType": "bytes",
          "name": "_to",
          "type": "bytes"
        },
        {
          "internalType": "uint256",
          "name": "_qty",
          "type": "uint256"
        },
        {
          "internalType": "address",
          "name": "_zroPaymentAddress",
          "type": "address"
        },
        {
          "internalType": "bytes",
          "name": "_adapterParam",
          "type": "bytes"
        }
      ],
      "name": "sendTokens",
      "outputs": [],
      "stateMutability": "payable",
      "type": "function"
    },
    {
      "inputs": [
        {
          "internalType": "uint16",
          "name": "_version",
          "type": "uint16"
        },
        {
          "internalType": "uint16",
          "name": "_chainId",
          "type": "uint16"
        },
        {
          "internalType": "uint256",
          "name": "_configType",
          "type": "uint256"
        },
        {
          "internalType": "bytes",
          "name": "_config",
          "type": "bytes"
        }
      ],
      "name": "setConfig",
      "outputs": [],
      "stateMutability": "nonpayable",
      "type": "function"
    },
    {
      "inputs": [
        {
          "internalType": "uint16",
          "name": "_dstChainId",
          "type": "uint16"
        },
        {
          "internalType": "bytes",
          "name": "_destinationContractAddress",
          "type": "bytes"
        }
      ],
      "name": "setDestination",
      "outputs": [],
      "stateMutability": "nonpayable",
      "type": "function"
    },
    {
      "inputs": [
        {
          "internalType": "uint16",
          "name": "_version",
          "type": "uint16"
        }
      ],
      "name": "setReceiveVersion",
      "outputs": [],
      "stateMutability": "nonpayable",
      "type": "function"
    },
    {
      "inputs": [
        {
          "internalType": "uint16",
          "name": "_version",
          "type": "uint16"
        }
      ],
      "name": "setSendVersion",
      "outputs": [],
      "stateMutability": "nonpayable",
      "type": "function"
    },
    {
      "inputs": [],
      "name": "symbol",
      "outputs": [
        {
          "internalType": "string",
          "name": "",
          "type": "string"
        }
      ],
      "stateMutability": "view",
      "type": "function"
    },
    {
      "inputs": [],
      "name": "totalSupply",
      "outputs": [
        {
          "internalType": "uint256",
          "name": "",
          "type": "uint256"
        }
      ],
      "stateMutability": "view",
      "type": "function"
    },
    {
      "inputs": [
        {
          "internalType": "address",
          "name": "recipient",
          "type": "address"
        },
        {
          "internalType": "uint256",
          "name": "amount",
          "type": "uint256"
        }
      ],
      "name": "transfer",
      "outputs": [
        {
          "internalType": "bool",
          "name": "",
          "type": "bool"
        }
      ],
      "stateMutability": "nonpayable",
      "type": "function"
    },
    {
      "inputs": [
        {
          "internalType": "address",
          "name": "sender",
          "type": "address"
        },
        {
          "internalType": "address",
          "name": "recipient",
          "type": "address"
        },
        {
          "internalType": "uint256",
          "name": "amount",
          "type": "uint256"
        }
      ],
      "name": "transferFrom",
      "outputs": [
        {
          "internalType": "bool",
          "name": "",
          "type": "bool"
        }
      ],
      "stateMutability": "nonpayable",
      "type": "function"
    },
    {
      "inputs": [
        {
          "internalType": "address",
          "name": "newOwner",
          "type": "address"
        }
      ],
      "name": "transferOwnership",
      "outputs": [],
      "stateMutability": "nonpayable",
      "type": "function"
    }
  ],
  "transactionHash": "0x9cdc9de9b80c180efabe59b83fb8f130573489e533616fb7fc7ba5254cc28605",
  "args": [
    "StargateToken",
    "STG",
    "0x79a63d6d8BBD5c6dfc774dA79bCcD948EAcb53FA",
    10001,
    "1000000000000000000000000000"
  ],
  "numDeployments": 1,
  "solcInputHash": "165776a1c877dfc83aef8ae881bb3f45",
  "bytecode": "0x60a06040523480156200001157600080fd5b5060405162002b7938038062002b79833981810160405260a08110156200003757600080fd5b81019080805160405193929190846401000000008211156200005857600080fd5b9083019060208201858111156200006e57600080fd5b82516401000000008111828201881017156200008957600080fd5b82525081516020918201929091019080838360005b83811015620000b85781810151838201526020016200009e565b50505050905090810190601f168015620000e65780820380516001836020036101000a031916815260200191505b50604052602001805160405193929190846401000000008211156200010a57600080fd5b9083019060208201858111156200012057600080fd5b82516401000000008111828201881017156200013b57600080fd5b82525081516020918201929091019080838360005b838110156200016a57818101518382015260200162000150565b50505050905090810190601f168015620001985780820380516001836020036101000a031916815260200191505b5060409081526020828101519183015160609093015187519295509293508691869186918691869186918691620001d691600391908501906200048c565b508051620001ec9060049060208401906200048c565b50506005805460ff191660121790555060006200020862000312565b60058054610100600160a81b0319166101006001600160a01b03841690810291909117909155604051919250906000907f8be0079c531659141344cd1fd0a4f28419497f9722a3daafe3b4186f6b6457e0908290a3508161ffff16836001600160a01b0316633408e4706040518163ffffffff1660e01b815260040160206040518083038186803b1580156200029d57600080fd5b505afa158015620002b2573d6000803e3d6000fd5b505050506040513d6020811015620002c957600080fd5b505161ffff161415620002f257620002e2338262000316565b6007805461ff0019166101001790555b505060601b6001600160601b031916608052506200053895505050505050565b3390565b6001600160a01b03821662000372576040805162461bcd60e51b815260206004820152601f60248201527f45524332303a206d696e7420746f20746865207a65726f206164647265737300604482015290519081900360640190fd5b620003806000838362000425565b6200039c816002546200042a60201b62001dbb1790919060201c565b6002556001600160a01b03821660009081526020818152604090912054620003cf91839062001dbb6200042a821b17901c565b6001600160a01b0383166000818152602081815260408083209490945583518581529351929391927fddf252ad1be2c89b69c2b068fc378daa952ba7f163c4a11628f55a4df523b3ef9281900390910190a35050565b505050565b60008282018381101562000485576040805162461bcd60e51b815260206004820152601b60248201527f536166654d6174683a206164646974696f6e206f766572666c6f770000000000604482015290519081900360640190fd5b9392505050565b828054600181600116156101000203166002900490600052602060002090601f016020900481019282620004c457600085556200050f565b82601f10620004df57805160ff19168380011785556200050f565b828001600101855582156200050f579182015b828111156200050f578251825591602001919060010190620004f2565b506200051d92915062000521565b5090565b5b808211156200051d576000815560010162000522565b60805160601c6125f66200058360003980610ac45280610e475280610f4b528061109e52806112c252806114cc52806116c4528061175952806119a25280611b0a52506125f66000f3fe6080604052600436106101b65760003560e01c8063604269d1116100ec5780639a8a05921161008a578063cbed8b9c11610064578063cbed8b9c14610989578063dd62ed3e14610a1f578063f187892214610a5a578063f2fde38b14610a86576101b6565b80639a8a0592146108eb578063a457c2d714610917578063a9059cbb14610950576101b6565b806370a08231116100c657806370a0823114610879578063715018a6146108ac5780638da5cb5b146108c157806395d89b41146108d6576101b6565b8063604269d1146107b057806360f05c7a146107c5578063706d8fff146107f3576101b6565b806327b7bbaa11610159578063395093511161013357806339509351146106ab57806342d65a8d146106e45780635c975abb1461076a5780635e280f111461077f576101b6565b806327b7bbaa146104ad5780632e15238c146105a2578063313ce56714610680576101b6565b8063095ea7b311610195578063095ea7b3146103c857806310ddb1371461041557806318160ddd1461044357806323b872dd1461046a576101b6565b80621d3567146101bb57806306fdde031461031057806307e0db171461039a575b600080fd5b3480156101c757600080fd5b5061030e600480360360808110156101de57600080fd5b61ffff8235169190810190604081016020820135600160201b81111561020357600080fd5b82018360208201111561021557600080fd5b803590602001918460018302840111600160201b8311171561023657600080fd5b91908080601f016020809104026020016040519081016040528093929190818152602001838380828437600092019190915250929567ffffffffffffffff853516959094909350604081019250602001359050600160201b81111561029a57600080fd5b8201836020820111156102ac57600080fd5b803590602001918460018302840111600160201b831117156102cd57600080fd5b91908080601f016020809104026020016040519081016040528093929190818152602001838380828437600092019190915250929550610ab9945050505050565b005b34801561031c57600080fd5b50610325610d4d565b6040805160208082528351818301528351919283929083019185019080838360005b8381101561035f578181015183820152602001610347565b50505050905090810190601f16801561038c5780820380516001836020036101000a031916815260200191505b509250505060405180910390f35b3480156103a657600080fd5b5061030e600480360360208110156103bd57600080fd5b503561ffff16610de3565b3480156103d457600080fd5b50610401600480360360408110156103eb57600080fd5b506001600160a01b038135169060200135610eca565b604080519115158252519081900360200190f35b34801561042157600080fd5b5061030e6004803603602081101561043857600080fd5b503561ffff16610ee7565b34801561044f57600080fd5b50610458610fb3565b60408051918252519081900360200190f35b34801561047657600080fd5b506104016004803603606081101561048d57600080fd5b506001600160a01b03813581169160208101359091169060400135610fb9565b3480156104b957600080fd5b50610589600480360360808110156104d057600080fd5b61ffff8235169190810190604081016020820135600160201b8111156104f557600080fd5b82018360208201111561050757600080fd5b803590602001918460018302840111600160201b8311171561052857600080fd5b919390928235151592604081019060200135600160201b81111561054b57600080fd5b82018360208201111561055d57600080fd5b803590602001918460018302840111600160201b8311171561057e57600080fd5b509092509050611040565b6040805192835260208301919091528051918290030190f35b61030e600480360360a08110156105b857600080fd5b61ffff8235169190810190604081016020820135600160201b8111156105dd57600080fd5b8201836020820111156105ef57600080fd5b803590602001918460018302840111600160201b8311171561061057600080fd5b919390928235926001600160a01b03602082013516929190606081019060400135600160201b81111561064257600080fd5b82018360208201111561065457600080fd5b803590602001918460018302840111600160201b8311171561067557600080fd5b5090925090506111fc565b34801561068c57600080fd5b506106956115d9565b6040805160ff9092168252519081900360200190f35b3480156106b757600080fd5b50610401600480360360408110156106ce57600080fd5b506001600160a01b0381351690602001356115e2565b3480156106f057600080fd5b5061030e6004803603604081101561070757600080fd5b61ffff8235169190810190604081016020820135600160201b81111561072c57600080fd5b82018360208201111561073e57600080fd5b803590602001918460018302840111600160201b8311171561075f57600080fd5b509092509050611630565b34801561077657600080fd5b5061040161174e565b34801561078b57600080fd5b50610794611757565b604080516001600160a01b039092168252519081900360200190f35b3480156107bc57600080fd5b5061040161177b565b3480156107d157600080fd5b50610325600480360360208110156107e857600080fd5b503561ffff16611789565b3480156107ff57600080fd5b5061030e6004803603604081101561081657600080fd5b61ffff8235169190810190604081016020820135600160201b81111561083b57600080fd5b82018360208201111561084d57600080fd5b803590602001918460018302840111600160201b8311171561086e57600080fd5b509092509050611824565b34801561088557600080fd5b506104586004803603602081101561089c57600080fd5b50356001600160a01b03166118aa565b3480156108b857600080fd5b5061030e6118c5565b3480156108cd57600080fd5b50610794611929565b3480156108e257600080fd5b5061032561193d565b3480156108f757600080fd5b5061090061199e565b6040805161ffff9092168252519081900360200190f35b34801561092357600080fd5b506104016004803603604081101561093a57600080fd5b506001600160a01b038135169060200135611a2a565b34801561095c57600080fd5b506104016004803603604081101561097357600080fd5b506001600160a01b038135169060200135611a92565b34801561099557600080fd5b5061030e600480360360808110156109ac57600080fd5b61ffff823581169260208101359091169160408201359190810190608081016060820135600160201b8111156109e157600080fd5b8201836020820111156109f357600080fd5b803590602001918460018302840111600160201b83111715610a1457600080fd5b509092509050611aa6565b348015610a2b57600080fd5b5061045860048036036040811015610a4257600080fd5b506001600160a01b0381358116916020013516611bd9565b348015610a6657600080fd5b5061030e60048036036020811015610a7d57600080fd5b50351515611c04565b348015610a9257600080fd5b5061030e60048036036020811015610aa957600080fd5b50356001600160a01b0316611cad565b336001600160a01b037f00000000000000000000000000000000000000000000000000000000000000001614610aee57600080fd5b61ffff8416600090815260066020526040902054835160026000196101006001851615020190921691909104148015610baf5750600660008561ffff1661ffff1681526020019081526020016000206040518082805460018160011615610100020316600290048015610b985780601f10610b76576101008083540402835291820191610b98565b820191906000526020600020905b815481529060010190602001808311610b84575b505091505060405180910390208380519060200120145b610bea5760405162461bcd60e51b81526004018080602001828103825260248152602001806124116024913960400191505060405180910390fd5b600080828060200190516040811015610c0257600080fd5b8101908080516040519392919084600160201b821115610c2157600080fd5b908301906020820185811115610c3657600080fd5b8251600160201b811182820188101715610c4f57600080fd5b82525081516020918201929091019080838360005b83811015610c7c578181015183820152602001610c64565b50505050905090810190601f168015610ca95780820380516001836020036101000a031916815260200191505b506040526020015160148401519395509350505060075460ff6101009091041615610cde57610cd9308284611e1c565b610ce8565b610ce88183611f77565b6040805161ffff891681526001600160a01b038316602082015280820184905267ffffffffffffffff8716606082015290517fd4d39d20f72eabd06c301e516d54653dfc9116de62c1d54bf1cb48cf3b42a7db9181900360800190a150505050505050565b60038054604080516020601f6002600019610100600188161502019095169490940493840181900481028201810190925282815260609390929091830182828015610dd95780601f10610dae57610100808354040283529160200191610dd9565b820191906000526020600020905b815481529060010190602001808311610dbc57829003601f168201915b5050505050905090565b610deb612067565b6001600160a01b0316610dfc611929565b6001600160a01b031614610e45576040805162461bcd60e51b815260206004820181905260248201526000805160206124ed833981519152604482015290519081900360640190fd5b7f00000000000000000000000000000000000000000000000000000000000000006001600160a01b03166307e0db17826040518263ffffffff1660e01b8152600401808261ffff168152602001915050600060405180830381600087803b158015610eaf57600080fd5b505af1158015610ec3573d6000803e3d6000fd5b5050505050565b6000610ede610ed7612067565b848461206b565b50600192915050565b610eef612067565b6001600160a01b0316610f00611929565b6001600160a01b031614610f49576040805162461bcd60e51b815260206004820181905260248201526000805160206124ed833981519152604482015290519081900360640190fd5b7f00000000000000000000000000000000000000000000000000000000000000006001600160a01b03166310ddb137826040518263ffffffff1660e01b8152600401808261ffff168152602001915050600060405180830381600087803b158015610eaf57600080fd5b60025490565b6000610fc6848484611e1c565b61103684610fd2612067565b611031856040518060600160405280602881526020016124c5602891396001600160a01b038a16600090815260016020526040812090611010612067565b6001600160a01b031681526020810191909152604001600020549190612157565b61206b565b5060019392505050565b60008060008787600160405160200180806020018381526020018281038252858582818152602001925080828437600081840152601f19601f82011690508083019250505094505050505060405160208183030381529060405290507f00000000000000000000000000000000000000000000000000000000000000006001600160a01b03166340a7bb108a30848a8a8a6040518763ffffffff1660e01b8152600401808761ffff168152602001866001600160a01b0316815260200180602001851515815260200180602001838103835287818151815260200191508051906020019080838360005b8381101561114257818101518382015260200161112a565b50505050905090810190601f16801561116f5780820380516001836020036101000a031916815260200191505b508381038252848152602001858580828437600081840152601f19601f82011690508083019250505098505050505050505050604080518083038186803b1580156111b957600080fd5b505afa1580156111cd573d6000803e3d6000fd5b505050506040513d60408110156111e357600080fd5b508051602090910151909a909950975050505050505050565b60075460ff161561123e5760405162461bcd60e51b815260040180806020018281038252602581526020018061252e6025913960400191505060405180910390fd5b600754610100900460ff161561125e57611259333086611e1c565b611268565b61126833856121ee565b600086868660405160200180806020018381526020018281038252858582818152602001925080828437600081840152601f19601f82011690508083019250505094505050505060405160208183030381529060405290507f00000000000000000000000000000000000000000000000000000000000000006001600160a01b031663c5803100348a600660008d61ffff1661ffff16815260200190815260200160002085338a8a8a6040518963ffffffff1660e01b8152600401808861ffff1681526020018060200180602001876001600160a01b03168152602001866001600160a01b031681526020018060200184810384528a8181546001816001161561010002031660029004815260200191508054600181600116156101000203166002900480156113d95780601f106113ae576101008083540402835291602001916113d9565b820191906000526020600020905b8154815290600101906020018083116113bc57829003601f168201915b505084810383528951815289516020918201918b019080838360005b8381101561140d5781810151838201526020016113f5565b50505050905090810190601f16801561143a5780820380516001836020036101000a031916815260200191505b508481038252858152602001868680828437600081840152601f19601f8201169050808301925050509a50505050505050505050506000604051808303818588803b15801561148857600080fd5b505af115801561149c573d6000803e3d6000fd5b505060408051630f428ae960e31b815261ffff8d1660048201523060248201529051600094506001600160a01b037f0000000000000000000000000000000000000000000000000000000000000000169350637a14574892506044808301926020929190829003018186803b15801561151457600080fd5b505afa158015611528573d6000803e3d6000fd5b505050506040513d602081101561153e57600080fd5b50516040805161ffff8c16815290810188905267ffffffffffffffff821660608201526080602082018181529082018a90529192507fef1c12e81f50500a9877e43d6690ac985d26149831e5b1aacc13c404acbca077918b918b918b918b9187919060a08201868680828437600083820152604051601f909101601f19169092018290039850909650505050505050a1505050505050505050565b60055460ff1690565b6000610ede6115ef612067565b846110318560016000611600612067565b6001600160a01b03908116825260208083019390935260409182016000908120918c168152925290205490611dbb565b611638612067565b6001600160a01b0316611649611929565b6001600160a01b031614611692576040805162461bcd60e51b815260206004820181905260248201526000805160206124ed833981519152604482015290519081900360640190fd5b604080516342d65a8d60e01b815261ffff85166004820190815260248201928352604482018490526001600160a01b037f000000000000000000000000000000000000000000000000000000000000000016926342d65a8d92879287928792606401848480828437600081840152601f19601f820116905080830192505050945050505050600060405180830381600087803b15801561173157600080fd5b505af1158015611745573d6000803e3d6000fd5b50505050505050565b60075460ff1681565b7f000000000000000000000000000000000000000000000000000000000000000081565b600754610100900460ff1681565b60066020908152600091825260409182902080548351601f60026000196101006001861615020190931692909204918201849004840281018401909452808452909183018282801561181c5780601f106117f15761010080835404028352916020019161181c565b820191906000526020600020905b8154815290600101906020018083116117ff57829003601f168201915b505050505081565b61182c612067565b6001600160a01b031661183d611929565b6001600160a01b031614611886576040805162461bcd60e51b815260206004820181905260248201526000805160206124ed833981519152604482015290519081900360640190fd5b61ffff831660009081526006602052604090206118a490838361234c565b50505050565b6001600160a01b031660009081526020819052604090205490565b6118cd612067565b6001600160a01b03166118de611929565b6001600160a01b031614611927576040805162461bcd60e51b815260206004820181905260248201526000805160206124ed833981519152604482015290519081900360640190fd5b565b60055461010090046001600160a01b031690565b60048054604080516020601f6002600019610100600188161502019095169490940493840181900481028201810190925282815260609390929091830182828015610dd95780601f10610dae57610100808354040283529160200191610dd9565b60007f00000000000000000000000000000000000000000000000000000000000000006001600160a01b0316633408e4706040518163ffffffff1660e01b815260040160206040518083038186803b1580156119f957600080fd5b505afa158015611a0d573d6000803e3d6000fd5b505050506040513d6020811015611a2357600080fd5b5051905090565b6000610ede611a37612067565b846110318560405180606001604052806025815260200161259c6025913960016000611a61612067565b6001600160a01b03908116825260208083019390935260409182016000908120918d16815292529020549190612157565b6000610ede611a9f612067565b8484611e1c565b611aae612067565b6001600160a01b0316611abf611929565b6001600160a01b031614611b08576040805162461bcd60e51b815260206004820181905260248201526000805160206124ed833981519152604482015290519081900360640190fd5b7f00000000000000000000000000000000000000000000000000000000000000006001600160a01b031663cbed8b9c86868686866040518663ffffffff1660e01b8152600401808661ffff1681526020018561ffff168152602001848152602001806020018281038252848482818152602001925080828437600081840152601f19601f8201169050808301925050509650505050505050600060405180830381600087803b158015611bba57600080fd5b505af1158015611bce573d6000803e3d6000fd5b505050505050505050565b6001600160a01b03918216600090815260016020908152604080832093909416825291909152205490565b611c0c612067565b6001600160a01b0316611c1d611929565b6001600160a01b031614611c66576040805162461bcd60e51b815260206004820181905260248201526000805160206124ed833981519152604482015290519081900360640190fd5b6007805482151560ff19909116811790915560408051918252517f0e2fb031ee032dc02d8011dc50b816eb450cf856abd8261680dac74f72165bd29181900360200190a150565b611cb5612067565b6001600160a01b0316611cc6611929565b6001600160a01b031614611d0f576040805162461bcd60e51b815260206004820181905260248201526000805160206124ed833981519152604482015290519081900360640190fd5b6001600160a01b038116611d545760405162461bcd60e51b81526004018080602001828103825260268152602001806124576026913960400191505060405180910390fd5b6005546040516001600160a01b0380841692610100900416907f8be0079c531659141344cd1fd0a4f28419497f9722a3daafe3b4186f6b6457e090600090a3600580546001600160a01b0390921661010002610100600160a81b0319909216919091179055565b600082820183811015611e15576040805162461bcd60e51b815260206004820152601b60248201527f536166654d6174683a206164646974696f6e206f766572666c6f770000000000604482015290519081900360640190fd5b9392505050565b6001600160a01b038316611e615760405162461bcd60e51b81526004018080602001828103825260258152602001806125536025913960400191505060405180910390fd5b6001600160a01b038216611ea65760405162461bcd60e51b81526004018080602001828103825260238152602001806123ee6023913960400191505060405180910390fd5b611eb18383836122ea565b611eee8160405180606001604052806026815260200161249f602691396001600160a01b0386166000908152602081905260409020549190612157565b6001600160a01b038085166000908152602081905260408082209390935590841681522054611f1d9082611dbb565b6001600160a01b038084166000818152602081815260409182902094909455805185815290519193928716927fddf252ad1be2c89b69c2b068fc378daa952ba7f163c4a11628f55a4df523b3ef92918290030190a3505050565b6001600160a01b038216611fd2576040805162461bcd60e51b815260206004820152601f60248201527f45524332303a206d696e7420746f20746865207a65726f206164647265737300604482015290519081900360640190fd5b611fde600083836122ea565b600254611feb9082611dbb565b6002556001600160a01b0382166000908152602081905260409020546120119082611dbb565b6001600160a01b0383166000818152602081815260408083209490945583518581529351929391927fddf252ad1be2c89b69c2b068fc378daa952ba7f163c4a11628f55a4df523b3ef9281900390910190a35050565b3390565b6001600160a01b0383166120b05760405162461bcd60e51b81526004018080602001828103825260248152602001806125786024913960400191505060405180910390fd5b6001600160a01b0382166120f55760405162461bcd60e51b815260040180806020018281038252602281526020018061247d6022913960400191505060405180910390fd5b6001600160a01b03808416600081815260016020908152604080832094871680845294825291829020859055815185815291517f8c5be1e5ebec7d5bd14f71427d1e84f3dd0314c0f7b2291e5b200ac8c7c3b9259281900390910190a3505050565b600081848411156121e65760405162461bcd60e51b81526004018080602001828103825283818151815260200191508051906020019080838360005b838110156121ab578181015183820152602001612193565b50505050905090810190601f1680156121d85780820380516001836020036101000a031916815260200191505b509250505060405180910390fd5b505050900390565b6001600160a01b0382166122335760405162461bcd60e51b815260040180806020018281038252602181526020018061250d6021913960400191505060405180910390fd5b61223f826000836122ea565b61227c81604051806060016040528060228152602001612435602291396001600160a01b0385166000908152602081905260409020549190612157565b6001600160a01b0383166000908152602081905260409020556002546122a290826122ef565b6002556040805182815290516000916001600160a01b038516917fddf252ad1be2c89b69c2b068fc378daa952ba7f163c4a11628f55a4df523b3ef9181900360200190a35050565b505050565b600082821115612346576040805162461bcd60e51b815260206004820152601e60248201527f536166654d6174683a207375627472616374696f6e206f766572666c6f770000604482015290519081900360640190fd5b50900390565b828054600181600116156101000203166002900490600052602060002090601f01602090048101928261238257600085556123c8565b82601f1061239b5782800160ff198235161785556123c8565b828001600101855582156123c8579182015b828111156123c85782358255916020019190600101906123ad565b506123d49291506123d8565b5090565b5b808211156123d457600081556001016123d956fe45524332303a207472616e7366657220746f20746865207a65726f20616464726573734f46543a20696e76616c696420736f757263652073656e64696e6720636f6e747261637445524332303a206275726e20616d6f756e7420657863656564732062616c616e63654f776e61626c653a206e6577206f776e657220697320746865207a65726f206164647265737345524332303a20617070726f766520746f20746865207a65726f206164647265737345524332303a207472616e7366657220616d6f756e7420657863656564732062616c616e636545524332303a207472616e7366657220616d6f756e74206578636565647320616c6c6f77616e63654f776e61626c653a2063616c6c6572206973206e6f7420746865206f776e657245524332303a206275726e2066726f6d20746865207a65726f20616464726573734f46543a2073656e64546f6b656e7328292069732063757272656e746c792070617573656445524332303a207472616e736665722066726f6d20746865207a65726f206164647265737345524332303a20617070726f76652066726f6d20746865207a65726f206164647265737345524332303a2064656372656173656420616c6c6f77616e63652062656c6f77207a65726fa2646970667358221220c36d4ba657dbf32a7bf68c36bf9eae00f796125f25f05fe63ed113d80ecaea7164736f6c63430007060033",
  "devdoc": {
    "kind": "dev",
    "methods": {
      "allowance(address,address)": {
        "details": "See {IERC20-allowance}."
      },
      "approve(address,uint256)": {
        "details": "See {IERC20-approve}. Requirements: - `spender` cannot be the zero address."
      },
      "balanceOf(address)": {
        "details": "See {IERC20-balanceOf}."
      },
      "decimals()": {
        "details": "Returns the number of decimals used to get its user representation. For example, if `decimals` equals `2`, a balance of `505` tokens should be displayed to a user as `5,05` (`505 / 10 ** 2`). Tokens usually opt for a value of 18, imitating the relationship between Ether and Wei. This is the value {ERC20} uses, unless {_setupDecimals} is called. NOTE: This information is only used for _display_ purposes: it in no way affects any of the arithmetic of the contract, including {IERC20-balanceOf} and {IERC20-transfer}."
      },
      "decreaseAllowance(address,uint256)": {
        "details": "Atomically decreases the allowance granted to `spender` by the caller. This is an alternative to {approve} that can be used as a mitigation for problems described in {IERC20-approve}. Emits an {Approval} event indicating the updated allowance. Requirements: - `spender` cannot be the zero address. - `spender` must have allowance for the caller of at least `subtractedValue`."
      },
      "increaseAllowance(address,uint256)": {
        "details": "Atomically increases the allowance granted to `spender` by the caller. This is an alternative to {approve} that can be used as a mitigation for problems described in {IERC20-approve}. Emits an {Approval} event indicating the updated allowance. Requirements: - `spender` cannot be the zero address."
      },
      "name()": {
        "details": "Returns the name of the token."
      },
      "owner()": {
        "details": "Returns the address of the current owner."
      },
      "renounceOwnership()": {
        "details": "Leaves the contract without owner. It will not be possible to call `onlyOwner` functions anymore. Can only be called by the current owner. NOTE: Renouncing ownership will leave the contract without an owner, thereby removing any functionality that is only available to the owner."
      },
      "symbol()": {
        "details": "Returns the symbol of the token, usually a shorter version of the name."
      },
      "totalSupply()": {
        "details": "See {IERC20-totalSupply}."
      },
      "transfer(address,uint256)": {
        "details": "See {IERC20-transfer}. Requirements: - `recipient` cannot be the zero address. - the caller must have a balance of at least `amount`."
      },
      "transferFrom(address,address,uint256)": {
        "details": "See {IERC20-transferFrom}. Emits an {Approval} event indicating the updated allowance. This is not required by the EIP. See the note at the beginning of {ERC20}. Requirements: - `sender` and `recipient` cannot be the zero address. - `sender` must have a balance of at least `amount`. - the caller must have allowance for ``sender``'s tokens of at least `amount`."
      },
      "transferOwnership(address)": {
        "details": "Transfers ownership of the contract to a new account (`newOwner`). Can only be called by the current owner."
      }
    },
    "version": 1
  },
  "userdoc": {
    "kind": "user",
    "methods": {},
    "version": 1
  },
  "storageLayout": {
    "storage": [
      {
        "astId": 481,
        "contract": "contracts/StargateToken.sol:StargateToken",
        "label": "_balances",
        "offset": 0,
        "slot": "0",
        "type": "t_mapping(t_address,t_uint256)"
      },
      {
        "astId": 487,
        "contract": "contracts/StargateToken.sol:StargateToken",
        "label": "_allowances",
        "offset": 0,
        "slot": "1",
        "type": "t_mapping(t_address,t_mapping(t_address,t_uint256))"
      },
      {
        "astId": 489,
        "contract": "contracts/StargateToken.sol:StargateToken",
        "label": "_totalSupply",
        "offset": 0,
        "slot": "2",
        "type": "t_uint256"
      },
      {
        "astId": 491,
        "contract": "contracts/StargateToken.sol:StargateToken",
        "label": "_name",
        "offset": 0,
        "slot": "3",
        "type": "t_string_storage"
      },
      {
        "astId": 493,
        "contract": "contracts/StargateToken.sol:StargateToken",
        "label": "_symbol",
        "offset": 0,
        "slot": "4",
        "type": "t_string_storage"
      },
      {
        "astId": 495,
        "contract": "contracts/StargateToken.sol:StargateToken",
        "label": "_decimals",
        "offset": 0,
        "slot": "5",
        "type": "t_uint8"
      },
      {
        "astId": 7,
        "contract": "contracts/StargateToken.sol:StargateToken",
        "label": "_owner",
        "offset": 1,
        "slot": "5",
        "type": "t_address"
      },
      {
        "astId": 4685,
        "contract": "contracts/StargateToken.sol:StargateToken",
        "label": "dstContractLookup",
        "offset": 0,
        "slot": "6",
        "type": "t_mapping(t_uint16,t_bytes_storage)"
      },
      {
        "astId": 4687,
        "contract": "contracts/StargateToken.sol:StargateToken",
        "label": "paused",
        "offset": 0,
        "slot": "7",
        "type": "t_bool"
      },
      {
        "astId": 4689,
        "contract": "contracts/StargateToken.sol:StargateToken",
        "label": "isMain",
        "offset": 1,
        "slot": "7",
        "type": "t_bool"
      }
    ],
    "types": {
      "t_address": {
        "encoding": "inplace",
        "label": "address",
        "numberOfBytes": "20"
      },
      "t_bool": {
        "encoding": "inplace",
        "label": "bool",
        "numberOfBytes": "1"
      },
      "t_bytes_storage": {
        "encoding": "bytes",
        "label": "bytes",
        "numberOfBytes": "32"
      },
      "t_mapping(t_address,t_mapping(t_address,t_uint256))": {
        "encoding": "mapping",
        "key": "t_address",
        "label": "mapping(address => mapping(address => uint256))",
        "numberOfBytes": "32",
        "value": "t_mapping(t_address,t_uint256)"
      },
      "t_mapping(t_address,t_uint256)": {
        "encoding": "mapping",
        "key": "t_address",
        "label": "mapping(address => uint256)",
        "numberOfBytes": "32",
        "value": "t_uint256"
      },
      "t_mapping(t_uint16,t_bytes_storage)": {
        "encoding": "mapping",
        "key": "t_uint16",
        "label": "mapping(uint16 => bytes)",
        "numberOfBytes": "32",
        "value": "t_bytes_storage"
      },
      "t_string_storage": {
        "encoding": "bytes",
        "label": "string",
        "numberOfBytes": "32"
      },
      "t_uint16": {
        "encoding": "inplace",
        "label": "uint16",
        "numberOfBytes": "2"
      },
      "t_uint256": {
        "encoding": "inplace",
        "label": "uint256",
        "numberOfBytes": "32"
      },
      "t_uint8": {
        "encoding": "inplace",
        "label": "uint8",
        "numberOfBytes": "1"
      }
    }
  }
}